:100000005555AAAA7A030000000000000000000075
:100010001B8300000000000000000000DE2D0E32F7
:100020000028100029110000590200006F02000092
:10003000850200009B020000B102000000000000E9
:100040000000000000000000000000005524000037
:1000500065240000000000006724000077240000F1
:100060007B240000A722000095240000E12200006C
:100070009724000099240000A9240000B92400005E
:10008000C7020000D7240000D9240000DB240000B0
:10009000DD240000DF240000E12400000000000057
:1000A0000000000000000000000000000000000050
:1000B0000000000000000000000000000000000040
:1000C0000000000000000000000000000000000030
:1000D0000000000000000000000000000000000020
:1000E0007A03000000F002F800F062F80AA090E83D
:1000F000000C82448344AAF10107DA4501D100F0E3
:1001000057F8AFF2090EBAE80F0013F0010F18BF4D
:10011000FB1A43F001031847ECDB00000CDC000085
:100120000A444FF0000C10F8013B13F0070408BF1D
:1001300010F8014B1D1108BF10F8015B641E05D0BB
:1001400010F8016B641E01F8016BF9D113F0080F70
:100150001EBF10F8014BAD1C0C1B09D16D1E58BF02
:1001600001F801CBFAD505E014F8016B01F8016B39
:100170006D1EF9D59142D6D37047000000230024AC
:1001800000250026103A28BF78C1FBD8520728BFA7
:1001900030C148BF0B6070471FB5024802490DF0DF
:1001A000C7F91FBD000810000028100010B510BDD1
:1001B000DFF80CD0FFF7F0FF02F087FA0DF0B9FA84
:1001C0000028100003B4FFF7F1FF03BC0DF0E4FAC0
:1001D0001A4B19680868B0E8F00F80F309884FF0EF
:1001E000000080F311884EF00D0E704700000000F3
:1001F00003480068006880F3088862B600DF00BF2B
:1002000008ED00E0EFF309800C4B1A6820E9F00FCD
:10021000106008B54FF0200080F3118800F02FFD2A
:100220004FF0000080F31188BDE8084019680868A5
:10023000B0E8F00F80F30988704700BF0428100071
:1002400001B44FF0200080F3118801BC704701B465
:100250004FF0000080F3118801BC704740BA70472E
:10026000C0BA7047401E0028FCDC704700BE7047D3
:1002700040BA7047C0BA70471EF0040F0CBFEFF3CE
:100280000880EFF309804FF0010102F054B81EF02E
:10029000040F0CBFEFF30880EFF309804FF0020169
:1002A00002F049B81EF0040F0CBFEFF30880EFF323
:1002B00009804FF0030102F03EB81EF0040F0CBF9E
:1002C000EFF30880EFF309804FF0040102F033B838
:1002D0001EF0040F0CBFEFF30880EFF309804FF01E
:1002E000050102F028B81EF0040F0CBFEFF30880E0
:1002F000EFF309804FF0000102F01DB810B504467D
:1003000000F029FC20460CF0B9FF044600F0BAFBCF
:10031000204610BD10B5040008D000F01CFC20469B
:100320000CF0DBFFBDE8104000F0ACBB10BD00F1ED
:1003300008014FF0FF32C0E90112C16001610021E4
:1003400001607047002101617047426853684B604B
:1003500043688B605368996051604160086101682F
:10036000491C0160704710B50B685A1C02D000F19F
:10037000080202E0026904E05268546824689C4262
:10038000FAD953684B6099608A60516008610168CE
:10039000491C016010BDD0E901128A60D0E9011248
:1003A000516001694A68824201D182684A60002234
:1003B00002610868401E08607047000010B5031F06
:1003C0004FF0807420381C6081610021416140F849
:1003D000202910BD1D4810B5016841F47F0101605E
:1003E000016841F07F4101604FF0E0201849416110
:1003F00007210161174900200860FFF7F9FE00207E
:1004000010BD704711494FF080501C39086070478B
:1004100010B5FFF715FF0F480168491C016010BDBA
:100420000C490868401E086001D1FFF710BF7047F3
:10043000064910B51C394FF080500860FFF700FFE7
:1004400000F0D5FABDE81040FFF701BF20ED00E055
:1004500098990300002810002DE9F0410E46050090
:100460004FF000072AD05020FFF748FF040025D0A6
:10047000B84605FB06F0401CC4F84C80FFF73EFF71
:100480002060C0B105FB0601C4F838806160A0603F
:10049000691E01FB0600E563E060781EC4E9106098
:1004A000A06404F11000FFF742FF04F12400FFF7FD
:1004B0003EFF274602E02046FFF72CFF3846BDE806
:1004C000F08170B50446FFF7A3FF04F12405A06C8A
:1004D0000AE0606A50B1284600F0E6FC08B100F07E
:1004E00035FDA06C401EA0640028F2DC4FF0FF3602
:1004F000A664FFF795FFFFF78BFF04F11005606C12
:100500000AE0206950B1284600F0CEFC08B100F0A6
:100510001DFD606C401E60640028F2DC6664BDE86E
:100520007040FFF77DBF10B51346026C04466AB1F8
:1005300083B1E0680CF01CFFE168206C091AE160EF
:100540002268914202D26168081AE060A06B401CE8
:10055000A06310BDA0680CF00BFF216CA0680844DC
:10056000A06061688842F1D32068A060EEE72DE9C1
:10057000FF41002582B01F46884604464FEA050623
:10058000FFF746FFA16BE06B814213D23A4641462A
:100590002046FFF7C8FF606A38B104F1240000F07C
:1005A00083FC012801D1FFF72DFFFFF739FF012060
:1005B00006B084E7049808B11DB106E0FFF730FFEC
:1005C0001DE0684600F098FC0125FFF729FF00F0C8
:1005D000C2FAFFF71DFF606C401C00D16664A06C7E
:1005E000401C00D1A664FFF71BFF04A9684600F079
:1005F00089FC30B12046FFF764FF00F043FA002089
:10060000D6E7FFF705FFA06BE16B884210D1FFF73B
:1006100007FF04F11000049900F02DFC2046FFF7BD
:1006200050FF00F02FFA0028AAD1FFF7EBFEA7E752
:10063000FFF7F6FE2046FFF744FF00F023FA9FE79E
:10064000944AC16C1268914201D000207047002387
:100650001A4619468BE72DE9F0411E4615460F460E
:100660000446FFF7EDFDA06BE16B884217D23246DE
:1006700039462046FFF757FFA06C411C03D0401CB1
:10068000A06401240CE0606A0028FAD004F1240080
:1006900000F00AFC0028F4D001202860F1E70024D3
:1006A000FFF7D5FD20460AE730B403680D46002B5E
:1006B0000CD0026CC1688C18C46041688C4200D3B5
:1006C000C360C168284630BC0CF052BE30BC7047D5
:1006D0002DE9FF43002683B09846894604463746F5
:1006E00000F12405FFF794FEA06B30B36948E6687B
:1006F0000068E06449462046FFF7D6FFB8F1000FD6
:100700000ED0E660606A28B1284600F0CDFB08B143
:10071000FFF778FEFFF784FE012007B0BDE8F08305
:10072000A06B401EA06320690028F3D004F11000E4
:1007300000F0BAFB0128EBD0ECE7059808B11EB138
:1007400006E0FFF76DFE1DE0684600F0D5FB0126D0
:10075000FFF766FE00F0FFF9FFF75AFE606C401CE1
:1007600000D16764A06C401C00D1A764FFF758FE5D
:1007700005A9684600F0C6FB30B12046FFF7A1FE90
:1007800000F080F90020C8E7FFF742FEA06B38B107
:10079000FFF746FE2046FFF794FE00F073F9A1E74D
:1007A000FFF73EFE2846059900F065FB2046FFF75F
:1007B00088FE00F067F9002894D1FFF723FE91E747
:1007C00070B515460E460446FFF73AFDA06BC8B15A
:1007D00031462046FFF768FFA06B401EA063606CA7
:1007E000411C03D0401C606401240CE020690028F7
:1007F000FAD004F1100000F057FB0028F4D00120DB
:100800002860F1E70024FFF722FD204670BD10B5F7
:100810000446FFF7FDFDA46BFFF702FE204610BD66
:10082000806B704710B504461B48002100EBC102E5
:100830005368A34203D1002240F8312002E0491C52
:100840000A29F3D32068FFF765FD2046BDE8104074
:10085000FFF760BD806B08B1002070470120704732
:10086000816BC06B814201D101207047002070472D
:1008700010B5094B002200BF53F832401CB1521C86
:100880000A2AF9D310BD43F8321003EBC2014860C5
:1008900010BD000004281000282A10002DE9F05F88
:1008A0008346DDE90A6815469A46894648200C9F2A
:1008B000FFF724FD04004AD01FB9A800FFF71EFD72
:1008C0000746676338003FD0A900A5220CF095FDCC
:1008D0006FF0030101EB8501606B3546084420F0A1
:1008E00007074946102204F138000CF0D7FD00201C
:1008F00084F847000F2D00D30E25E5622086608620
:10090000201DFFF71FFD04F11800FFF71BFDC5F1C7
:100910000F012461A1615246594638466462FFF7CF
:100920004DFD2060B8F1000F01D0C8F80040FFF77E
:100930006FFDFB4D6868401C68602868DFF8E48341
:1009400040B1686968B331E02046FFF7E3FC4FF03F
:10095000FF3449E02C606868012827D15FF0000768
:1009600007EB870108EB8100FFF7E1FC7F1C0F2FED
:10097000F6D3ED48FFF7DBFCEB481430FFF7D7FC6C
:10098000E9482830FFF7D3FCE7483C30FFF7CFFCBD
:10099000E5485030FFF7CBFCE34828631430686328
:1009A00004E02868C06AB04200D82C60E06AE968B8
:1009B000884200D9E860A96A491CA962296988426D
:1009C00000D9286100EB800108EB8100211DFFF7B1
:1009D000BCFC0124FFF724FD686928B12868C06ABF
:1009E000B04201D2FFF70EFD2046BDE8F09F2DE991
:1009F000F041CB4CA06920B1E069401CE061BDE84A
:100A0000F081A068401CA060A0684FF0FF3570B96D
:100A1000206B616B21636063606A401C6062206BC5
:100A20000068A8B1206BC068C0684068E062A06838
:100A3000E16A8842E3D3BB4F206B006850B1206B62
:100A4000C068C668A1687068814205D2E062D6E7D6
:100A5000E562ECE7E562D2E7301DFFF79CFCB06A87
:100A600018B106F11800FFF796FCF06A2169884278
:100A700000D9206100EB800007EB8000311DFFF7FB
:100A800064FCD9E72DE9F0470026FFF7C1FCA44C30
:100A9000A069401EA061A069A8BB606898B3DFF898
:100AA0008882002508F12808DFF878921AE0C068EB
:100AB000C76807F11800FFF76EFC381DFFF76BFCE5
:100AC000F86A2169884200D9206100EB800109EBB6
:100AD0008100391DFFF739FCF86A2168C96A88422C
:100AE00000D30125D8F8001040460029DFD1E06985
:100AF00028B909E0FFF77BFFE069401EE061E0698B
:100B00000028F7D105E009E0012D02D0206A012874
:100B100004D1002001262062FFF774FCFFF780FC5F
:100B20003046BDE8F08770B57D4C054620684560CD
:100B3000A0682168854201F1040104D2606BBDE820
:100B40007040FFF710BC206BFFF70DFCE06A854298
:100B500000D2E56270BD72488169491C81617047AD
:100B600010B50B460246FFF7F6FF10686C49C41833
:100B70008B68984205D9A0420ED98868844202D871
:100B80000AE0A042F9D914600868001DFFF703FCD1
:100B90002046FFF7C8FF00E01460FFF773FF00284E
:100BA00003D1BDE81040FFF72DBC10BD10B5020009
:100BB0000FD0FFF7D0FF5A48816800688C18001DDD
:100BC000FFF7E9FB2046FFF7AEFFFFF75BFF0028CA
:100BD00003D1BDE81040FFF715BC10BD10B50446A9
:100BE000FFF716FC0CB94E480468E46AFFF718FCDE
:100BF000204610BD2DE9F04100270D4606460F297D
:100C000000D30E25FFF704FCDFF81481D8F80000AC
:100C1000864201D1002608E03EB13446E06AA8428F
:100C200029D0854204D926B904E0D8F80040F5E778
:100C300006B90127C5F10F01E562A161394D00EB4D
:100C40008000616905EB8000814210D1201DFFF713
:100C5000A2FBE06AD8F810204146904200D9086112
:100C600000EB800005EB8000211DFFF76EFB012FDC
:100C700001D1FFF7C7FBBDE8F041FFF7D1BB284822
:100C80008269284922B1012101627047521E026126
:100C9000026902EB820251F82220002A0269F5D093
:100CA00002EB820201EB82014A68526801F10803FB
:100CB0004A609A4201D152684A60D1680160704727
:100CC00070B50646FFF7A4FB154D2868864201D192
:100CD000002619E0C6B13446201DFFF75CFBA06A70
:100CE00018B104F11800FFF756FB0F48211D3C30E6
:100CF000FFF72BFBFFF794FB002E0FD1686928B19B
:100D0000BDE87040FFF77EBB2C68E5E706483C3045
:100D100000686968884209D10020286070BD000021
:100D200004281000782A1000A42B1000BDE87040A1
:100D3000A5E7F04B426900219A4206D1806AA3F1EF
:100D40001402904201D000B901210846704770B5E5
:100D50000400E3D0E84D28688442DFD0FFF758FB59
:100D60002046FFF7E6FF012816D1201DFFF713FBF1
:100D7000E06A2969884200D92861E04900EB8000D7
:100D800001EB8000211DFFF7E0FAE06A2968C96ADB
:100D9000884201D3FFF736FBBDE87040FFF740BB48
:100DA000BCE770B500260446FFF7C3FF01281FD13A
:100DB000D14DA86920B1CF4804F11801143815E0CD
:100DC000E06A2968C96A884201D3012600E000264A
:100DD000201DFFF7E0FAE06A2969884200D92861FE
:100DE000C64900EB800001EB8000211DFFF7ADFA42
:100DF000304693E7C14C2068012801D9FFF702FB78
:100E00000BF094FFF7E71FB50024009401940294BF
:100E100023464022BAA1BC480394FFF73FFD0128B6
:100E200009D1FFF70DFAB448012141618460BDE8A2
:100E30001F40FFF7CFBA1FBD10B5FFF701FAAE494B
:100E400000204861BDE81040FFF7DBBA10B5FFF79E
:100E5000DFFAA9488468FFF7E3FA204610BD10B511
:100E6000FFF7EEF9A4488468FFF7F1F9204610BDBA
:100E7000A1484068704770B59F4D0C4629681831ED
:100E8000FFF771FA2868001DFFF785FA601C04D08F
:100E9000A8682044BDE8704045E62968BDE8704078
:100EA000091D9448FFF751BA70B5C068C46804F1D1
:100EB00018000646FFF76FFA8F4DA86918B18D48E4
:100EC000314614380DE0201DFFF765FAE06A296904
:100ED000884200D92861894900EB800001EB80003D
:100EE000211DFFF732FAE06A2968C96A884201D3F6
:100EF000012013E7002011E77F494A6A02608968F0
:100F00004160704770B50D460446FFF781FA2868C6
:100F1000411C14D0784A2168536A994203D0616811
:100F2000936899420DD9616893685B1A834208D22D
:100F30009268511A401A28602046FFF7DDFF00240E
:100F400000E00124FFF76CFA2046E7E66A49012039
:100F5000086270476848006870476748416919B17E
:100F6000806918B102207047002070470120704747
:100F700070B5614D064639B14FEA0104FFF748FAF2
:100F8000208E304211D101E02C68F7E7201DFFF7D9
:100F900002FAA06A18B104F11800FFF7FCF95548ED
:100FA000211D1430FFF7D1F96686FFF739FA686919
:100FB00018B1BDE87040FFF725BA6868012802D073
:100FC000BDE870405BE600202860A7E670B50546E6
:100FD00009B9494801680C46FFF71AFA608EA84320
:100FE0006086208EA8432086BDE87040FFF718BABF
:100FF000404B4269002114339A4206D1806AA3F122
:101000002802904201D000B901210846704770B50E
:1010100006460C002BD0384D2868844227D0FFF7B5
:10102000F7F9208E30432086608E30421BD0204658
:10103000FFF7DEFF012816D1201DFFF7ACF9E06AAB
:101040002969884200D928612C4900EB800001EB16
:101050008000211DFFF779F9E06A2968C96A884292
:1010600001D3FFF7CFF9BDE87040FFF7D9B955E6D6
:1010700070B5002605460C000DD0FFF7E1F8208E74
:1010800028432086608E284227D02046FFF7B0FFF5
:10109000012802D021E0304640E6174DA86920B172
:1010A000144804F11801143815E0E06A2968C96A87
:1010B000884201D3012600E00026201DFFF76BF9CE
:1010C000E06A2969884200D928610C4900EB800058
:1010D00001EB8000211DFFF738F9FFF7B8F8DAE7D8
:1010E000054810B50468FFF793F9248EFFF798F9C7
:1010F000204610BDE02B100004281000782A1000B4
:1011000049444C4500000000D50D0000F0B50746ED
:10111000002003460B4E11E057F82350032200BF76
:101120004FEAC20C45FA0CF484EA2064E4B2521E81
:1011300056F8244084EA0020F2D55B1C8B42EBDB9E
:10114000F0BD0000C4D700000D4880470D4800479F
:10115000FEE7FEE7FEE7FEE7FEE7FEE7FEE7FEE767
:10116000FEE7FEE7FEE7FEE7FEE7FEE7FEE7FEE757
:10117000FEE7FEE7FEE7FEE7FEE7FEE7FEE7FEE747
:1011800093110000C50000004FF0005090F82110AE
:1011900011F00C0105D0042905D0082905D07821CB
:1011A00004E00F2102E01E2100E03C2180F828101D
:1011B0007047704710B50849042001240023C1F886
:1011C000FC00064A14601360054BA0221A70C1F897
:1011D000FC01C86710BD000084E000E0D4030022D9
:1011E00002E400E010B5042000F0D6F8052000F07D
:1011F000D3F8062000F0D0F8072000F0CDF8082042
:1012000000F0CAF87649002008607549203108606E
:1012100074490880724A121D1060714A24321060AD
:1012200088806F4A083210606D4A28321060088149
:101230006B4A0C3210606A4A2C3210608881684A0E
:1012400010321060664A3032106008820621042095
:1012500000F0BAF80621052000F0B6F8062108468D
:1012600000F0B2F80621072000F0AEF804210820B3
:1012700000F0AAF8042000F09BF8052000F098F890
:10128000062000F095F8072000F092F8082000F002
:101290008FF8042000F074F8052000F071F80620A3
:1012A00000F06EF8072000F06BF8BDE81040082051
:1012B00000F066B800EB80004FF6FF7101EA4001D4
:1012C000474800220260C206118601210160704772
:1012D000434900200860704700EB80004FF6FF7123
:1012E00001EA40013E480022001D02604FF000521A
:1012F000918601210160704739490020091D08606D
:10130000704700EB80004FF6FF7101EA400134485E
:101310000022083002604FF0005211870121016065
:1013200070472F49002008310860704700EB8000AB
:101330004FF6FF7101EA4001294800220C3002609B
:101340004FF000529187012101607047244900202D
:101350000C310860704700EB80004FF6FF7101EA26
:1013600040011F480022103002601E4A0E321180D8
:101370000121016070471A49002010310860704750
:1013800000F01F020121914040094FF0E02202EBE2
:101390008000C0F80011704700F01F020121914049
:1013A00040094FF0E02202EB8000C0F88011704746
:1013B00000F01F020121914040094FF0E02202EBB2
:1013C0008000C0F8801270474907090E002803DA30
:1013D00000F00F00044A00E0044A81547047000006
:1013E000240500223200002014ED00E000E400E0BB
:1013F00059480121016000210160704757480121CF
:10140000016000210160704710B5002000F08BF8EA
:10141000534800220260FFF7F1FFFFF7E9FF514850
:1014200002605149A0200870002000F088F8BDE853
:101430001040002000F06BB84A4801211C380160C0
:1014400000210160704710B50446002000F06BF8E1
:1014500043484149046001200860002000F06FF813
:10146000BDE81040002000F052B830B53C4889B0CB
:101470000468002C11D0202168460BF0E8FF3B489F
:1014800000783A4B00216A465B1C02E0CD5C555463
:10149000491C8142FADB1146A04709B030BD2E49F4
:1014A00001201C39086070473048203000782F49EF
:1014B00021310978401A00F03F0070472C4902782A
:1014C0000A7042784A7082788A70C278CA7002794B
:1014D0000A7142794A7182798A71C079C8717047FC
:1014E00024480068417882784FF00050437A0374B2
:1014F000214B1B78437443891B0A83744389C3744B
:1015000001754275C1798175017AC175704700F026
:101510001F020121914040094FF0E02202EB8000C0
:10152000C0F80011704700F01F02012191404009EE
:101530004FF0E02202EB8000C0F88011704700F00D
:101540001F020121914040094FF0E02202EB800090
:10155000C0F88012704700005C840022A0000022C6
:101560003C2810007C04002200E400E0000400207D
:1015700000020020442810008428100010B5092023
:1015800000F019F80A2000F016F8092000F01FF802
:101590000A2000F01CF80521092000F024F805219C
:1015A0000A2000F020F815487F21417081700171F8
:1015B0000021017010BD00F01F020121914040097F
:1015C0004FF0E02202EB8000C0F88011704700F07D
:1015D0001F020121914040094FF0E02202EB800000
:1015E000C0F8801270474907090E002803DA00F09E
:1015F0000F00034A00E0034A81547047480000206E
:1016000014ED00E000E400E0704710B5A44C0720A2
:1016100060700020207044F2C000608000BF00BFF6
:1016200000BF4CF2C000608000BF00BF00BF4CF2A2
:10163000E00060800920FEF715FE44F2E0006080C3
:1016400000BF00BF00BF4FF48040608010BDF0B508
:1016500000252E464FF00054E02716E0883401F0B4
:101660003F0160702170678000BF00BF00BFD4F8E9
:1016700008C043F825C06680883C00BF6D1C521E20
:10168000491C3F2901D9401CC0B2002AE6DCF0BD4C
:101690002DE9F047824C0026A41C05462680DFF881
:1016A00004920121C9F880104FF4C058A4F80080BA
:1016B00000BF00BF00BF00BF00BF4FF480572780AE
:1016C0003520FEF7CFFD2680FFF79FFF00F0A9F839
:1016D0005C2000F0B7F82B46012202210720FFF71B
:1016E000B6FF2B1D012203210620FFF7B0FF05F1F5
:1016F0000803012204210520FFF7A9FF05F10C03CF
:10170000012203210720FFF7A2FF05F110030122A8
:1017100004210720FFF79BFF00F083F8FFF775FF18
:10172000278000BF00BF00BF00BF00BF00BF00BFD9
:1017300000BF00BF00BFA4F8008000BF00BF00BF13
:1017400000BF00BF4FF440602080C9F88060BDE852
:10175000F0872DE9F0439946079B002603B18026C8
:101760000023504C1F4665044FF001081DE000BFE8
:1017700085F8890001F03F0C4CEA060C85F888C01A
:1017800059F823C0C5F88CC0C4F8B080C4F8B07054
:10179000491CC9B2402902D3401CC0B20021D4F870
:1017A000C0C0BCF1000FFAD15B1C9342E0DBBDE886
:1017B000F0834FF0005282F88900002319B1802095
:1017C00082F8880001E082F8883036480121C0F8AC
:1017D000AC10C0F8AC3000BFD0F8C0100029FBD16D
:1017E000704738B50C4605460021F820FFF7E1FFA9
:1017F0000020014600902B462246F820FFF7A9FF63
:1018000038BD38B50C46054601210020FFF7D1FF51
:101810000120002100902B4622460846FFF799FF41
:1018200038BD10B51E4C4FF48040A41C208004200D
:10183000FEF718FD0020208000BF00BF00BF00BFE2
:1018400000BF10BD70B5164C2126A41C268000BF19
:1018500000BF00BF00BF00BF40F02105258000BFD2
:1018600000BF00BF00BF00BF44F221010843208039
:101870000420FEF7F7FC258000BF00BF00BF00BFBB
:1018800000BF268000BF00BF00BF00BF00BF002018
:10189000208000BF00BF00BF00BF00BF70BD0000C0
:1018A0008800002000100022F8B5F94E00252C46D3
:1018B0003570012000F05CFA0E2000F059FA0D207E
:1018C00000F056FA0C2000F053FA032000F050FA12
:1018D000012000F059FA0E2000F056FA0D2000F019
:1018E00053FA0C2000F050FA032000F04DFA00F0FB
:1018F00087FB6A460221E74800F0CEFCE6499DF8E6
:10190000010008709DF80000422800D00325052141
:10191000012000F045FA05210E2000F041FA0521D2
:101920000D2000F03DFA05210C2000F039FA0621C7
:10193000032000F035FA012000F00EFA0E2000F02E
:101940000BFA0D2000F008FA032000F005FAB4703D
:1019500074702846F8BD38B520F040400D46009020
:1019600014460421684601F01BF8CC494978C906A1
:1019700002D5012D00D1401C0099216484F83E005D
:1019800038BD506470472DE9F041C44C0546002035
:1019900084F83600C248C34EC0F30E0720464FF00D
:1019A000E908406A052D06D0062D19D0032D35D043
:1019B000042D49D061E0B94A2946FFF7CCFFA06A5F
:1019C00060642787607880060028306890F88B076D
:1019D00001DA40F0060084F83D0084F83A804CE0DB
:1019E000AE4A2946FFF7B7FFA06A6064AB480421FE
:1019F000243000F0D5FFAA4901EB8000C0F30E00AF
:101A00002087607880060028306890F88B0701DA1C
:101A100040F0060084F83D00ED2012E09F4A294680
:101A2000FFF799FFA06A6064278760788006002826
:101A3000306890F88B0701DA40F0060084F83D002A
:101A4000E52084F83A0018E06178890615D501216F
:101A500004F8361F914A2946FFF77DFF9048F83079
:101A6000C0F30E006080306890F88B0720F006000D
:101A700040F00200E07184F8048085484570BDE8BC
:101A8000F041864800F059BB70B5844C06463634A8
:101A900000202070834DE1202071286890F888177D
:101AA0006171363C012E1DD17F49804AC1F30E0180
:101AB000218790F8AD17127801F0F00102F00F02C3
:101AC0001143217690F8B40760766078C00602D59D
:101AD000F12084F83A00714A3146A068FFF73BFFD5
:101AE000E06860646078410794F83B1002D521F00B
:101AF000020105E02A6892F8882702F002021143E9
:101B000084F83B10C10705D094F83A1041F0020167
:101B100084F83A1080070028286890F8BA0701DA9C
:101B200020F0030084F83C0059484670BDE870403E
:101B30005A4800F0C3BA01280AD0022808D0052864
:101B400005D0062803D0042801D0032801D11AE7C4
:101B50009AE7704773B506469DF80440544D641CDF
:101B600008E000BF55F8242001A93046904701281D
:101B700004D0641C072CF5D900207CBD9DF804001E
:101B80007CBD70B5017800291CD00146482243482D
:101B900001F0E5F83E4D6878002813D100213F4858
:101BA000FFF7D8FF04000DD03E48006890F81801F8
:101BB000000708D500F062FB0120A8700A2000F0A1
:101BC0006FFA6C7070BD002028702046BDE8704030
:101BD000B1E7002070478268920005D00078C00706
:101BE00002D001200870704700207047C26992003F
:101BF00006D00078000703D5022008700120704746
:101C000000207047426A920008D0826A32B10078A0
:101C1000800603D50320087001207047002070471C
:101C2000426A920006D00078C00603D504200870EE
:101C30000120704700207047426A920006D0007869
:101C4000800703D5052008700120704700207047E9
:101C5000826A32B10078400703D50620087001205F
:101C600070470020704700200870012070471FB5A2
:101C700000F093F901208DF800000B48019008480E
:101C80000290F830039005484168684688471FBDB8
:101C9000402810000410002084281000082C100098
:101CA000808701204428100000800120F6071000E2
:101CB000C4DB00007FB5404C40486178FFF74AFF25
:101CC00010B1FFF738FF7FBD00253D496570A420A6
:101CD00008733C48006890F81801000702D5A57009
:101CE00000F0C7FA207801280DD08DF80050364852
:101CF000019000F5F0600290F83003902F484168A1
:101D0000684688477FBD02208DF80000EFE72D4828
:101D100010B500684FF0000290F81801010726483E
:101D200006D58178012907D002290ED0032912D1C6
:101D30008270BDE810409AE70221817000F0A3FA9A
:101D4000BDE81040322000F0ABB90321817040782B
:101D5000BDE81040EFE610BD00F01F0201219140E8
:101D600040094FF0E02202EB8000C0F800117047FC
:101D700000F01F020121914040094FF0E02202EBE8
:101D80008000C0F88011704700F01F0201219140CF
:101D900040094FF0E02202EB8000C0F8801270474B
:101DA0004907090E002803DA00F00F00074A00E097
:101DB000074A81547047000040281000082C10008A
:101DC00000100020442810000080012014ED00E0E5
:101DD00000E400E0F0B53A250022FD4B4FF48014FA
:101DE00011460020A65CC718521C401C87F8606092
:101DF0000C28F7DB01F03F0040F0800083F835004D
:101E0000491CA942EDDBF0BD2DE9F0430024F04E62
:101E100081462546274600209C4206DA00EB06084C
:101E200019F804C088F860C003E000EB060C8CF8D9
:101E30006070641C401C0C28EEDB501900F03F0061
:101E4000084340F0800086F835006D1C032DE2DB6E
:101E5000BDE8F08300B514233A220021DD48FFF7E6
:101E6000D3FFDC4820233D22002114305DF804EB31
:101E7000CAE7D9480168D64801F29971183011F8BB
:101E8000122C00F8112C11F8112C00F8102C11F85C
:101E9000102C00F80F2C11F80F2C00F80E2C11F854
:101EA0000E2C00F80D2C0A7842704A7882708A78DD
:101EB000C270CA7802710A7942714A7982718A794C
:101EC000C271CA7902720A7A42724A7A82728A7A34
:101ED000C272C24A127802730A7B42734A7B8273CF
:101EE0008A7BC273CA7B0274BC4A521C1278427449
:101EF0004A7C82748A7CC274CA7C0275B74B0A7DA4
:101F0000DB1E02F0F0021B7803F00F031A43427548
:101F10004A7D82758A7DC275CA7D02760A7E4276C6
:101F2000AE4A921E12788276AC4A521E1278C2765F
:101F3000CA7E02774A7F82778A7FC277CA7F80F81B
:101F4000202091F8202080F8212091F8212080F88D
:101F5000222091F8222080F8232091F8232080F875
:101F6000242091F8242080F8252091F8252080F85D
:101F7000262091F8262080F8272091F82F209849D4
:101F80000A701E220270332048740B208874704738
:101F9000944801680029FCD17047934800220260F0
:101FA00091481C3802609148026101210161826000
:101FB00081600260016002608A49A0F574700B685C
:101FC000002BFCD182490B7B43F020030B730B7B6E
:101FD00023F040030B730B7B23F080030B730B7B0D
:101FE00023F020030B73C0F8D823C0F8E023804807
:101FF000027070477B48183001680029FCD1704797
:1020000030B57A4800247430046078488030046029
:102010007648C4600121C160C4600460016004604E
:102020006F4D2020AD1D287068706949593D0873B7
:10203000A42008736B48183001680029FCD1FFF711
:10204000ACFFFFF716FFFFF705FFFFF7C3FE694878
:102050000460684820300460AC8530BD5C49026C87
:102060004A73130A8B73130CCB73130E0B7492FA0F
:10207000A2F2B2FA82F24A7490F83E208A74406C5E
:10208000C874020A0A75020C4A75020E8A75820F1C
:1020900081F8402090FAA0F0B0FA80F0C87570473F
:1020A000544900220A600A069085012008607047A2
:1020B0004C48001F01680129FCD1704710B5044647
:1020C000FFF7CCFF4649208F491C0880404894F810
:1020D0003C20193080F82120227CC270228A120A0A
:1020E0000271A27C8277E27C8274627D4277227DDB
:1020F00001F8012CA27DC277E27DC274227E0275B6
:10210000354A126892F89927027094F83A204A7377
:1021100094F83B20543900F8112C627EC276314A83
:102120001938121F1368012BFCD191F8611001734B
:10213000BDE8104041F28830B2E710B50446FFF721
:102140008DFF27492C34491CA08908802248026849
:102150001F48193092F8BA3780F821302378C371BC
:1021600023881B0A0372A378037363881B0A4373D3
:1021700023798377637901F8013CE379C377237A84
:102180004375637AC375A37B4B73637C543900F842
:102190000E3C92F8993723F0070300F81939A37A17
:1021A0002C3CDB0702D092F8CE2701E094F83220D5
:1021B00080F836200B4A121F1368012BFCD191F8CE
:1021C00061100173BDE8104041F2883068E70000FB
:1021D00000100020B802100044281000F907100079
:1021E00053000020040B00221C0C0022D00300220C
:1021F00041281000200500224749484B0A6892F800
:10220000892702700A68B2F89E27428009681B7805
:1022100001F2A27103F00F03CA7A02F0F0021A432E
:1022200002710A88C280B1F8052002814A7B82725D
:10223000CA7BC272897C017370473949027801F800
:102240000C2C82784A724288120A8A7202790A76C3
:1022500082794A73C288120A8A73027A8A7402895E
:10226000120ACA74827A8A76C27A0A77007BC877A1
:1022700070472B49042015390873704728492020DE
:102280001539087370472649C020153908737047FF
:10229000244900200860704770B5234C2368002B48
:1022A000FCD11D4603E0C6185B1C86F880508B42AB
:1022B000F9D32368002BFCD102E0C45CD4545B1C2E
:1022C0008B42FAD370BD10B5002000F0DAFD15493D
:1022D0000020086015480078002810D012481838EF
:1022E00001680029FCD10E481538C078400602D597
:1022F0000F4901200870BDE81040FFF7DBBC10BD9E
:1023000010B5002000F0BDFD064900200860BDE8C2
:102310001040FFF7FCBC000044281000F607100036
:1023200015100020200500221C0B0022412810005F
:1023300040281000FEE70446012005F046FF00217A
:102340000F20226805F056FF01210F20626805F07A
:1023500051FF02210F20A26805F04CFF03210F203E
:10236000E26805F047FF0C210F20226905F042FFCB
:102370000E210F20626905F03DFF0F210846A2697A
:1023800005F038FF20210F20E26905F033FF3748C0
:10239000026821210F2005F02DFF34481038026813
:1023A00022210F2005F026FF30480C380268232137
:1023B0000F2005F01FFF2D480838026824210F2048
:1023C00005F018FF2948001D026825210F2005F09F
:1023D00011FF26483438026826210F2005F00AFF35
:1023E00022481438026827210F2005F003FF2048F7
:1023F00000683021C06AC0F106020F2005F0FAFE25
:10240000FEE710B5012805D0022805D0032809D021
:10241000032102E0012100E00221BDE81040032079
:1024200005F0D3BE0021032005F0CFFEFEE710B576
:1024300004460146042005F0C8FE012C00D1FEE749
:1024400010BD0146062005F0C0BE10B50446014689
:10245000072005F0BAFE24B1012C03D0022C02D1D2
:10246000FEE7FEE7FEE710BD0220EEE738ED00E0F4
:102470000428100010B5002000F003FDBDE8104056
:10248000FDF7A6BE704710B5002000F0FAFCBDE8CD
:102490001040FDF7B7BEFDF7CBBF1A4810B5016875
:1024A00021F004010160002000F0EBFCBDE81040C9
:1024B000FEF7DBBF7047704710B5002000F0E1FC6D
:1024C000BDE8104005F049BD10B5002000F0D9FC72
:1024D000BDE8104006F0ADB810B5002000F0D1FC0A
:1024E0000948006890F82901800703D5BDE810402D
:1024F00005F06EBD10BD704770477047704770475C
:102500007047000010ED00E04428100010B5422193
:102510007F480AF07AFF7E487E497F4A01804280E8
:102520007E4981807E4BC3807E4C04817E4C4481F9
:102530007E4C84817E4CC4817E4C04827E4C4482DD
:102540007E4C84827E4CC4827E4C0483C387428747
:1025500081877D49A0F840107C4801687A48B1F82D
:102560009C274280B1F8A027C280B1F8A51701814D
:1025700010BDF0B585B0FF22142168460AF03DFF7A
:102580006846FFF785F8039803250127072645F2DB
:10259000AA54A04202D00498A04239D1DDE900013A
:1025A000884206D00299884203D00198884208D117
:1025B00000900498A0420FD10098000E012804D08A
:1025C00006E00020FFF73DFF0FE00098C0F3013761
:1025D0000098C0F3032602E00120FFF732FF0398C2
:1025E000A04213D1009800F007055949887920F0DE
:1025F000F30207F0030040EA0610104388715548C3
:10260000017865F30201017005B0F0BD0220D9E741
:102610000120FFF716FFF9E770B54E493F20491C2E
:102620000870FEF7B1FDFEF7EFFE484D2868007810
:10263000A52802D00120FFF7FAFE4748006810B134
:102640000020FFF7F4FE29684FF000064FF0010468
:1026500091F8290182074FF0085004D5C0F898631B
:10266000C0F8804301E0C0F8984391F828013B4A44
:1026700000F00100106091F82801111DC0F3400026
:10268000086037480460001F0460001F0460FEF704
:10269000BBFFFEF7A7FDFFF707F9032802D10020D3
:1026A000FFF7AFFEFEF71CFFFEF784FDFEF766FFA7
:1026B000FFF75FFF286890F829018107294801D5B5
:1026C000046000E00660046070BD10B54FF000517A
:1026D00040F27A304881FFF79FFFFFF717FF22494A
:1026E0003F200860214900200860224820490160FD
:1026F00001F5086020490860FDF7A2FD00F03EF8F2
:1027000000F052F8FDF7A3FDFEF77DFB012010BDA0
:102710000000012000800120E0AC012060B4012015
:102720004200012080870120BA260120F6260120E0
:102730003C27012078270120AC2C0120E82C012027
:10274000C2250120FE250120BC3F100044281000B6
:102750000010002020000020C81000228804002261
:10276000280A00227C04002238270120802810003B
:10277000402E1000642810006828100070B5454DE8
:10278000002400210120FDF767FE45F8240020B158
:10279000FDF756FF55F8240010B90020FFF755FE4D
:1027A000641C072CEDDB70BD1FB53A4801210024E5
:1027B0000091001FCDE901042346402236A138488C
:1027C0000394FEF76BF8012802D00120FFF73DFECD
:1027D0003048062100911838CDE901040023402239
:1027E00030A132480394FEF759F8012802D00120A5
:1027F000FFF72BFE2748052100911438CDE901048D
:1028000000234FF480722AA12C480394FEF746F867
:10281000012802D00120FFF718FE1E480221009176
:102820000838CDE901040023B42225A126480394E9
:10283000FEF734F8012802D00120FFF706FE154804
:10284000042100911038CDE9010400234FF4C8722F
:102850001EA121480394FEF721F8012802D001208F
:10286000FFF7F3FD0B48032100910C38CDE901047B
:1028700000234FF4007219A11A480394FEF70EF8D2
:10288000012805D004B00120BDE81040FFF7DDBDF0
:102890001FBD0000E03F100054736B5F436D640088
:1028A00025D2000054736B5F52707400798500006C
:1028B00054736B5F5353797300000000855300001D
:1028C00054736B5F535300002D76000054736B5F9D
:1028D0005363616E00000000FB7E000054736B5F69
:1028E0004D7400001FBA00002DE9F0479246012503
:1028F00047F6F87256429946AC460024089F16E007
:1029000030F8143031F81480A8EB03031BB29A425C
:1029100000DD1A469E4200DA1E46002B02DA4FF016
:10292000000502E001DD4FF0000C04F10104BC429F
:10293000E6DB55EA0C0306D0012D01D02DB108E0ED
:10294000BCF1010F05D1002203E0BCF1010F00D161
:10295000324600252C462B4611E000BF30F81360AC
:1029600031F813C01644ACEB060636B24E4505DA14
:10297000C9F1000C664501DD3544641C5B1CBB429B
:10298000ECDB95FBF4F10A44002105E030F811304E
:1029900013442AF81130491CB942F7DBBDE8F0872F
:1029A00070B5034600200246FE4C09E09D5C521CB7
:1029B00005F00F0604EB1515A65D2D78304428446C
:1029C0008A42F3DB70BD884200D3084670478842D4
:1029D00000D808467047884200D30846904200D38A
:1029E000104670472DE9F047D0F810C00568046A1A
:1029F00085FB0C12A1FB041242694368914683FBDC
:102A000002628269E246A6FB02677618D0E90217E5
:102A100081FB07C8C069ACFB00C81CEB060682FB43
:102A20000A2CA2FB011280FB0902A0FB0502401840
:102A300084FB0712A1FB03120818301A4FEAE07159
:102A4000ACE72DE9F04389B0044600680090606867
:102A50000190206902906068039020690490A06949
:102A6000059020690690A0690790E06908900D46DE
:102A70006846FFF7B7FF8046A0680190E0680490C1
:102A80006069079089466846FFF7ACFF06466068B4
:102A90000190A068029020690490E0680590A06908
:102AA0000790606908900F466846FFF79BFFC5E9ED
:102AB0000401C5E90267C5E9008909B0BDE8F083F2
:102AC0002DE9FF4F4FF0000A89B09B465746D1468B
:102AD000D046564655465446202168460AF0B7FC73
:102AE0000B9810E00999824431F9102000FB00F1A5
:102AF00002FB01668844414302FB009901FB00444C
:102B000017440D44401C5845ECDD0B99ABEB01001C
:102B1000401CCDE9000ACDE90654CDE90486CDE993
:102B2000027968460A99FFF78CFF0DB0BDE8F08F77
:102B30009D480068017B427B41EA0221827BC07B89
:102B400041EA024141EA006040007047964800684F
:102B50000179427941EA02218279C07941EA024150
:102B600041EA0060704700B5FFF7E2FF400840000F
:102B700000BDF8B50E460446FFF7F5FF0090FFF7DD
:102B8000D7FF054604216846FFF70AFF04EB40071C
:102B900000240099204623464FF0010C0CFA03F262
:102BA0000A4207D02A4204D037F8102026F8142011
:102BB000641C401C5B1C1E2BF0DBF8BDC6E7FCB59B
:102BC0000E460746FFF7CFFF0190FFF7BFFF0090CB
:102BD000FFF7BCFF0546042101A8FFF7E1FE04460C
:102BE00004216846FFF7DCFE00EB440007EB4007DA
:102BF00000200099044603464FF0010C0CFA03F242
:102C00000A4207D02A4204D037F8142026F81020B0
:102C1000401C641C5B1C202BF0DBFCBD00B5FFF7E7
:102C200087FF40F0010000BD90E7604A520102EBCF
:102C3000810101F108510860704701EB40108010DC
:102C400001EB41014900182291FBF2F300EB400037
:102C500000F5801002FB1311006820F07F40C8408F
:102C600000F03F00704701EB4010801010B501EB01
:102C700041014900182391FBF3F403FB141300EB0B
:102C8000400000F580103F2401689C40A1439A4019
:102C90000A430270110A4170110C817010BD2DE9B8
:102CA000F14F82B0FFF7BAFF8046FFF74FFF84462F
:102CB000002001900546814607464FF0010A00902A
:102CC0000AFA07F111EA0C0F43D04FF0000B5C46F3
:102CD000012D3DDB34490968097D491EA94237DDD4
:102CE0005FF000060AFA06F010EA080F21D0394614
:102CF0003046FFF7A2FFD4B1022C18DB2A490A683C
:102D0000517D491EA14212DD484510D1117D029A24
:102D100004FB015332F9132004F1010303FB0153B7
:102D2000029931F91310511A00D549428B4481465A
:102D3000641C761C1D2ED5DB022D07DB0198B0EB41
:102D40000B0000D54042009908440090CDF804B033
:102D50006D1C7F1C202FB3DB0098BDE8FE8F03E0C5
:102D600011F8013B00F8013B521EF9D270477CB5C7
:102D70000D460446FFF7F7FE0090FFF7E7FE0190CF
:102D800000980421400800906846FFF709FE0646B7
:102D9000042101A8FFF704FE3044820021462846A2
:102DA00006E00000E4DB0000442810003827012082
:102DB000FFF7D5FF7CBD0B46594909684A7D097D5F
:102DC000521C4A43014652001846C8E770B50446F3
:102DD00048210AF03CFB0020514B207060701968BC
:102DE00091F8CD1701F0010140EA411161701A68B4
:102DF00092F88C27C2F3001241EA02116170606000
:102E0000FFF70CFFA060FFF7A1FE464DE060688869
:102E10002082186800F2AC70C17AA174017F21751C
:102E2000817A6175017BA1750178E1753E49407831
:102E3000097800F0F00001F00F0108432076FFF759
:102E400092FE6062FFF782FEA062E888A085E085BE
:102E5000186800F2AD70017F84F83010817F84F82B
:102E60003110C17F84F83210417F84F833104178EB
:102E700084F83410C17884F8351010F8020CE0742E
:102E800070BD4FF00051012809D12548006890F825
:102E90001801400703D525480078052808D091F887
:102EA00021003F280AD03F2081F82100FEF76CB9AD
:102EB00091F82100312801D03120F5E77047184BF7
:102EC00010B51A68947E640704D5D28A0468A2EB10
:102ED000040202601A68947EA40703D5128B0C6862
:102EE000121B0A600268002A00DA002202601C68D5
:102EF000E48AA24200DD224602600A68002A00DA63
:102F000000220A601C68248BA24200DD22460A606F
:102F10001B689B7EDB0702D003680B60026010BD5C
:102F200044281000BC3F1000F60710007B2810005A
:102F300070B5F949024600240B685B7D00EB430342
:102F400006E01D8832F8026B641C354423F8025BEE
:102F50000D686D7DA542F4DC0C68637D247D00EB7B
:102F6000830204EB430300EB4300002306E00488E4
:102F700032F8025B5B1C2C4420F8024B0C68247D69
:102F80009C42F4DC70BD10B501461022E348FFF707
:102F9000E6FEE148006890F8CD07C00709D0E04C94
:102FA0002078012805D1DD488068FFF7C1FF0020A7
:102FB0002070DC4841684FF40060FEF759F80028A3
:102FC00003D0BDE81040FDF71DBA10BD70B592B03A
:102FD00006460D4614466846FFF7F8FE14F0050F46
:102FE0004FF0010101D08DF8001014F0620F2ED0C7
:102FF000C948036893F85001C0070ED193F8020244
:1030000058B993F8E002C00707D193F86002C007EF
:1030100003D193F8B001C00719D09DF80000C04A51
:1030200040F020008DF80000117014F01D0F0ED13B
:1030300040F0010003F21D138DF8000058788DF860
:10304000120018788DF8170098788DF81300ADF8F5
:103050002E50ADF81060ADF82C50AFF2D500AF4E49
:1030600003244FF4006501906846FEF78AFD0021B5
:103070002846FDF77DFF00212846FDF7A7FF3078A1
:10308000002804D0FFF7BDF9641E002CECDC12B060
:1030900070BD10B50446C00709D04FF4F061A248D6
:1030A0000AF0B3F94FF4F051A0480AF0AEF914F069
:1030B000420F07D03C219E480AF0A7F940219D48C5
:1030C0000AF0A3F9A0070AD5F0219B480AF09DF960
:1030D000BDE810404FF4807198480AF096B910BDD1
:1030E0002DE9F04107468C48006890F82010490708
:1030F00010D590F821000125C0F30110854000246F
:103100008F4E05E0F18870883A46FFF75FFF641C38
:10311000AC42F7DBBDE8F0812DE9FF4F83B080467C
:10312000FFF782FD0190FFF779FD009004216846CA
:10313000FFF736FC0446042101A8FFF731FC4443A5
:10314000754801264FF48851006890F8210000F07E
:103150000707BE407B480AF07AF90025DFF8E491C2
:10316000DFF8DCA1DFF8B4B11DE000BFBAF806104B
:1031700042460498FFF72AFF18F0050F12D0724953
:10318000DBF8040004F0BDFB6F4A0020494607E06D
:1031900051F8203032F910C0634441F82030401C0F
:1031A000A042F5DB6D1CB542E0DB18F0050F0CD03A
:1031B0000020494607E000BF51F82020059B3A4116
:1031C00023F81020401CA042F6DB07B0BDE8F08FCA
:1031D0002DE9F74F504D82B09046286890F8501175
:1031E000C9070ED190F8021259B990F8E012C90738
:1031F00007D190F86012C90703D190F8B001C00759
:1032000060D0FFF7B0FC0090FFF7D8FC01900421DC
:103210006846FFF7C5FB0446042101A8FFF7C0FB81
:103220002044440028680126A94690F8210000F0B7
:103230000707BE40A10043480AF009F90025DFF85E
:1032400004A1DFF8FCB016E0DDE90221BBF80200C2
:10325000FFF7BCFE314851468268002008E000BFFD
:1032600051F8203032F910C0634441F82030401C3E
:10327000A042F5DB6D1CB542E6DB324D0021504625
:1032800006E000BF50F821203A4125F81120491CE2
:10329000A142F7DBD9F8000090F85011C90707D117
:1032A00090F8B011C90703D190F8E002C00709D027
:1032B0002846D8F80010FFF75CFC2846D8F8041020
:1032C000FFF77DFC05B081E72DE9F043124B8946FD
:1032D0000021D2F800C0184D1C6816E03CF81130EF
:1032E00030F811609B1B1FB25FF00003C3EB0316A5
:1032F00005EB86065B1C36F811801BB2B84426F835
:103300001180042BF2DB491C09B2637D8B42E5DCA2
:1033100056680020094A2EE044281000784010002A
:1033200088281000C83F100042000120C207012079
:10333000C2250120FE250120502C1000402D100038
:10334000BC3F1000402E1000F088012036F81030ED
:1033500039F81010591A0DB25FF0000102EB811319
:10336000491C33F8107009B22F4423F81070042957
:10337000F4DB401C00B2217D8142E7DCBDE8F08334
:103380002DE9F041C44D0746286890F8D000400769
:1033900011D5C24E00242868002300EB4400B0F889
:1033A0000211C4EB041006EBC0123846FFF7B4FE5E
:1033B000641C042CEFDBADE62DE9F043B64D8146ED
:1033C00085B0286890F8800340071CD5B44FDFF81B
:1033D000D48200242868142100EB4400B0F8B263C2
:1033E00068460AF034F8C4EB041007EB8000009044
:1033F00008EB841001906A4631464846FFF7E8FE24
:10340000641C042CE6DB05B0B8E72DE9F041DFF8D9
:103410009882002304465E1E86B045463246194611
:10342000D8F80000FDF754F9002332461946E86841
:10343000FDF74EF914F040050AD03C229B499C4808
:10344000FFF78DFC9A4840229A493C30FFF787FCF1
:103450002046FFF71EFE2046FFF742FE14F00C0048
:1034600001D0FFF78DFF14F0200001D0FFF7A4FF7B
:10347000914F14F0010605D0798800238F4A304619
:10348000FFF74AFEF007844E09D0306890F820001C
:10349000000704D58948FFF702FC8949486014F009
:1034A00042040CD01421684609F0D1FF7F480090F7
:1034B00080480190F9886A462046FFF789FE55B199
:1034C000306890F88003400705D579496A463C3159
:1034D0007748FFF7F9FE7B490120444608707A4996
:1034E0000870D8F80000FDF7ABF8E068FDF7A8F821
:1034F00006B00FE6F0B468494FF4F0620E68B6F813
:103500000211814201D365490FE0644D012100BFE2
:1035100006EB4103B3F80041B3F8023198422AD8D0
:1035200007D1C1EB011005EBC011F0BC6348FFF7F8
:1035300016BC9C421FD2001B00021A1B90FBF2F328
:103540005E4CC1EB011100204FF4617605EBC11117
:1035500001EB4002A2F5F06231F91050B2F90020FF
:10356000AD1A5D4302EB252224F81020401CB04226
:10357000EEDBF0BC7047491C0429C9DB5349D4E792
:103580002DE9F04144490968B1F8B22382420FD3D2
:1035900091F85001C00703D191F8B001C00760D085
:1035A0003C223F494148FFF7DAFB40223D496DE0AC
:1035B0003B4E3C4D012400BF01EB4402B2F8B03356
:1035C000B2F8B22390424DD813D191F85001C00700
:1035D00003D191F8B001C00743D0C4EB041006EB4F
:1035E00080013C223148FFF7BAFB05EB84114022F1
:1035F0004CE0934236D2C01A0002D21A90FBF2F28B
:1036000091F85001C00703D191F8B001C00728D04C
:10361000264FC4EB0411002006EB810101EB4003AF
:1036200031F9106033F93C3CF61A564303EB26237C
:1036300027F81030401C1E28F0DB1E4E002005EB42
:10364000841100BF01EB400331F9104033F9403CD5
:10365000E41A544303EB242326F81030401C20289E
:10366000F0DB57E5641C042CA6DB91F85001C00781
:1036700003D191F8B001C007F3D009493C22B4311D
:103680000A48FFF76CFB07494022C031BDE8F04112
:103690000848FFF764BB000044281000C20701205F
:1036A000502C1000402D1000E03F1000C2250120DA
:1036B000FC3F1000FE250120BC3F1000420001200D
:1036C000882810005228100078281000421E01207F
:1036D0002DE9FC5F0024A146A646A3460226FE4A29
:1036E0001268537D127D5B1E951E2EE002FB06F7CD
:1036F00001EB470C00EB4707BCF902C0B7F90270B9
:10370000009702271EE000BF06FB0278CDF8048078
:1037100031F918A030F91880CDF80480E2450BD0BB
:10372000DDE9008CBCEB080C01D5CCF1000C644445
:1037300009F1010C1FFA8CF9DDF80480D4467F1CD6
:10374000CDF80080BD42DFDA761CB342CEDAB9F1A3
:10375000000F01D0B4FBF9F4022639E002FB06F7B2
:1037600001EB470C00EB4707BCF902C0B7F9027048
:1037700000974FF0020728E006FB027931F919A003
:1037800030F91990BAEB0C0C01D5CCF1000C0FFA02
:103790008CFCDDF80080BCF1000FA9EB080C06D012
:1037A000BCF1000F01DACCF1000CACEB040CBCF165
:1037B000000F01DACCF1000C1FFA8CFCF44500D9A3
:1037C000E646D4467F1CCDF80090BD42D4DA761C84
:1037D000B342C3DA012635E006EB420731F917C0E0
:1037E00030F9177000974FF0030728E007FB0269D4
:1037F00031F919A030F91990BAEB0C0C01D5CCF1C4
:10380000000C0FFA8CFCDDF80080BCF1000FA9EB76
:10381000080C06D0BCF1000F01DACCF1000CACEBC7
:10382000040CBCF1000F01DACCF1000C1FFA8CFC87
:10383000DC4500D9E346D4467F1CCDF80090BB425E
:10384000D4DA761CB542C7DA02B05A467146BDE8F2
:10385000F05F032004F089BD0388934200D9028001
:103860000888904200D20A807047F0B587B00646BB
:10387000002047F6FF71ADF80810ADF80400ADF870
:103880001010ADF814000227934C10E0012508E059
:1038900007FB005001A936F8102002A8FFF7DCFF53
:1038A0006D1C2068007D411EA942F1DC7F1C206850
:1038B000407DB842EADC002512E0284405A936F82C
:1038C000102004A8FFF7C8FF2068417D007D01FBA0
:1038D000005005A936F8102004A8FFF7BDFF6D1CA5
:1038E0002068007DA842E8DC012514E0007D05A9E0
:1038F000684336F8102004A8FFF7AEFF2068691C63
:10390000007D484306EB400005A930F8022C04A8CE
:10391000FFF7A2FF6D1C2068417D491CA942E5DC30
:10392000BDF80420BDF80810012004F01EFDBDF80C
:103930001420BDF81010022004F017FD07B0F0BDF0
:1039400070B50C460546FFF790FF21462846BDE8B6
:103950007040BDE610B5014610226048FFF7FFF940
:103960005F4841688020FDF783FB002803D0BDE855
:103970001040FCF747BD10BD30B593B00446684613
:10398000FFF724FA0021012C02D0022C08D00EE00F
:1039900001208DF800008DF815108DF8141006E048
:1039A00020208DF832108DF800008DF831109DF830
:1039B0000100AFF25F0140F00C00484D01918DF81D
:1039C000010003246846FEF7DCF800218020FDF7A3
:1039D000CFFA00218020FDF7F9FA2878002804D0DA
:1039E000FEF70FFD641E002CECDC13B030BD024668
:1039F0001621012000FA01F3134201D1491EF9D525
:103A0000491C8840104370472DE9F05FFFF706F925
:103A10000546FFF709F9304C0746206890F88C07F7
:103A2000C00603D52846FFF7E2FF05464FEA5509D1
:103A30004FF4F0612B4809F0E8FC4FF01D084FF0FF
:103A4000000A0120FFF798FF24480026D0F804B0B0
:103A500021480068047D34E0012000FA06F111EAF3
:103A6000090F2DD000250120A840384225D0294635
:103A70003046FFF7E2F81849DFF868C009683CF9FA
:103A80001430B1F83421991A3BF91430A3EB020237
:103A900000D54942002A00DA5242914204DD12491F
:103AA0002CF8143021F814003F2805D2401CC2B273
:103AB00029463046FFF7D7F8641C6D1C202DD2DB59
:103AC000761C4645C8DBFEF785F90AF1010ABAF112
:103AD000400FB6DB012009E04428100088401000A8
:103AE000C83F1000E0AC012060B40120FFF744FFA4
:103AF000FE48DFF8FCB3002500684FF0010A067DA0
:103B00000AFA05F111EA090F0FD000240AFA04F0AD
:103B1000384207D01BF816002146C2B22846FFF7EC
:103B2000A2F8761C641C202CF0DB6D1C4545E7DBFD
:103B3000FEF750F90120FFF71FFFEE48EC494068FF
:103B4000BDE8F05FFCE62DE9F05FE84A116891F806
:103B50003001C407E848037803F0F00514D005707D
:103B600000264B7D0C7DDFF88CA35B1CB046914694
:103B700004FB03F783460120FFF7FEFE2046DAF838
:103B80000420D9F800100EE091F83E1101F00F0169
:103B900029430170BDE8F09F32F91030B1F832C10D
:103BA0006345F7DB401C8742F6DC0F2EF2D2761C11
:103BB000F6B245EA060108F101088BF80010B8F1E9
:103BC000100FD8DBE6E710B54FF42E714FF48010DC
:103BD00009F03DFCFEF7FEF8FFF7B5FFFFF714FF15
:103BE000C24AC5481268401D017892F8FB2701F0CF
:103BF000F00102F00F0211430170BDE810400120F6
:103C000004F074BB2DE9F0438DB000214FF6FF7036
:103C1000ADF82C10DFF8E4C2ADF82800ADF80400D0
:103C2000DFF8D882B64FDFF8C492ADF80810ADF8CF
:103C30001800ADF80C10ADF81000ADF814100CF130
:103C4000140C0D460E460124B96804FA06F0084229
:103C500013D0002D0ADBD9F80000007D801EA84299
:103C600004DB1CF805200BA90AA803E01CF80520BA
:103C700002A901A8FFF7F0FD6D1C761C202EE3D3EE
:103C800000252E464FEA090C796804FA06F008422E
:103C900013D0002D0ADBDCF80000407D801EA84216
:103CA00004DB18F8052003A906A803E018F805208E
:103CB00005A904A8FFF7D0FD6D1C761C202EE3D3C8
:103CC0008D48BDF82C20801CBDF8281000780244D7
:103CD00092B2ADF82C20BDF8043001440344ADF895
:103CE0000430BDF8083089B21844ADF808008248A5
:103CF000ADF82810401CBDF8183000780344ADF82A
:103D00001830BDF80C300344ADF80C30BDF810305D
:103D10000344ADF81030BDF814301844ADF8140069
:103D2000042004F022FBBDF80C20BDF8181005207B
:103D300004F01BFBBDF80820BDF80410062004F0B9
:103D400014FBBDF81420BDF81010072004F00DFB83
:103D50000DB0BDE8F0832DE9F0476948634B0024BE
:103D600046694568D3F800302246012140F6FF79C4
:103D700001FA02F72F421FD036F91480B8F1000F74
:103D800005D0C84507D1076847F0100712E007685B
:103D900047F020070EE0B3F836C1B3F84171E246B0
:103DA000BC44C44503DBAAEB0707474503DD0768AE
:103DB00047F040070760641C521C202AD8D3002417
:103DC0008769D0F80860224601FA02F535421DD015
:103DD00037F914502DB14D4507D1056845F0100550
:103DE00012E0056845F020050EE0B3F83AC1B3F8DB
:103DF00043A10CEB0A08A84503DBACEB0A0CAC456D
:103E000003DD056845F040050560641C521C202A4E
:103E1000DAD3BDE8F087F0B5394A0020374FD2F841
:103E2000046001460446012303FA04F5354203D039
:103E30003D5D854200D92846641C202CF4D32F4ECA
:103E4000D2F808701436002403FA04F53D4203D07A
:103E5000355D8D4200D92946641C202CF4D3264BB5
:103E6000274F5B1C244D1B78ED1C1C18224B3F6810
:103E70009B1C6E1C1B784FF0FF0C0B4447F0800717
:103E80009C4208D21B1B1844FF2811D985F800C09A
:103E900017603170F0BDA3420AD2E31A1944FF291A
:103EA00001D8317002E086F800C017602870F0BDBC
:103EB0002870EEE72DE9F84FDFF830900F4D0F48EE
:103EC000D9F800101435DFF838B091F830110446F5
:103ED00049064FF0010A7CD5342109F0B8FAFFF702
:103EE0009AFFFDF7C6FFFDF7B5FF0BE04428100071
:103EF00060B4012088401000F6071000B8021000DE
:103F000090281000042003264FF0000800900220A3
:103F1000FFF732FDF00728D04FF0000E72467046D2
:103F20004F465B460AFA00F1D3F804C011EA0C0FC1
:103F300013D05969D7F800C031F91210BCF838C154
:103F4000614509DA215CDDF800C04FF0010E6144E3
:103F5000FF2900DDFF212154521C401C2028E1D301
:103F6000BEF1000F01D126F00106B00729D54FF0B0
:103F7000000E724670464F464FEA0B030AFA00F1F4
:103F8000D3F808C011EA0C0F13D09969D7F800C014
:103F900031F91210BCF83CC1614509DA295CDDF841
:103FA00000C04FF0010E6144FF2900DDFF212954BC
:103FB000521C401C2028E1D3BEF1000F01D126F095
:103FC000020666B1FFF727FFFDF753FFFDF742FF3B
:103FD00000E060E008F10108B8F1640F97DB032608
:103FE000002000900220FFF7C7FCF00720D0002738
:103FF00039463846CC465A460AFA00F3D2F80480CD
:1040000013EA080F0ED05369DCF8008033F9113041
:10401000B8F83881434504DD235C13B101275B1EEA
:104020002354491C401C2028E6D30FB926F0010672
:10403000B00721D5002739463846CC464FEA0B0257
:104040000AFA00F3D2F8088013EA080F0ED0936939
:10405000DCF8008033F91130B8F83C81434504DDC9
:104060002B5C13B101275B1E2B54491C401C2028DC
:10407000E6D30FB926F00206002E0AD0FFF7CBFEDA
:10408000FDF7F7FEFDF7E6FE0098401C009064285F
:10409000A8DBBDE8F88F7F22342109F0AEF9FFF7E5
:1040A000BAFEFDF7E6FEFDF7D5FE40260327002009
:1040B00000900220FFF760FCF80731D04FF00008B5
:1040C000434640464FEA0B010AFA00F2D1F804C019
:1040D00012EA0C0F1CD04A6940F6FF7C32F913201B
:1040E000624506DB012E04DD225C4FF00108921BC5
:1040F0000CE0D9F800C0BCF838C1624507DA225C90
:104100004FF001083244FF2A00DDFF2222545B1CDD
:10411000401C2028D8D3B8F1000F01D127F00107A7
:10412000B80731D54FF00008434640464FEA0B012F
:104130000AFA00F2D1F808C012EA0C0F1CD08A6902
:1041400040F6FF7C32F91320624506DB012E04DDC8
:104150002A5C4FF00108921B0CE0D9F800C0BCF8B3
:104160003CC1624507DA2A5C4FF001083244FF2A5D
:1041700000DDFF222A545B1C401C2028D8D3B8F154
:10418000000F01D127F002076FB1FFF744FEFDF7E2
:1041900070FEFDF75FFE002E05DD00987610401CD6
:1041A0000090642885DB0326002000900220FFF7A2
:1041B000E3FBF00720D0002739463846CC465A4664
:1041C0000AFA00F3D2F8048013EA080F0ED05369FC
:1041D000DCF8008033F91130B8F83881434504DD4C
:1041E000235C13B101275B1E2354491C401C20286B
:1041F000E6D30FB926F00106B00721D500273946CE
:104200003846CC464FEA0B020AFA00F3D2F808808F
:1042100013EA080F0ED09369DCF8008033F91130EF
:10422000B8F83C81434504DD2B5C13B101275B1ECC
:104230002B54491C401C2028E6D30FB926F0020657
:10424000002E3FF426AFFFF7E6FDFDF712FEFDF767
:1042500001FE0098401C00906428A7DB19E72DE9B7
:10426000F05FA44F0024A44D38684FF07F0226462B
:1042700090F830118B0706D50124490601D42A7025
:1042800004E02E7002E090F83F11297090F8301190
:10429000DFF868824B0709D544F00204480602D4CF
:1042A00088F8002006E088F8006003E090F84011EC
:1042B00088F80010002C75D03421914809F0C7F817
:1042C0008E48801C0670401E0670FDF7C3FDFDF78A
:1042D000D0FD3868DFF82C92BA4690F830014006DD
:1042E00061D54FF0100B00260220FFF745FBE007D9
:1042F00022D0D9E904730020014605E033F91120EA
:10430000824200DD1046491CB942F7DBDAF80010A2
:10431000B1F83621824202DA2878401E08E0B1F86E
:104320004B11814206DB28785844FF2800DDFF202E
:10433000287001E024F00104A0072AD500200146DE
:10434000D9F81870D9F80C2006E000BF37F9113001
:10435000834200DD1846491C9142F7DBDAF8001071
:10436000B1F83A21824205DA98F80010491E88F81F
:1043700000100EE0B1F84B11814208DB98F8000004
:104380005844FF2800DDFF2088F8000001E024F0F9
:104390000204002C06D0FFF73EFDFDF76AFD761CF7
:1043A000202EA1DB0EE4402600270220FFF7E4FACE
:1043B000E0071AD0D9E904C30020014606E000BF97
:1043C00033F91120824200DD1046491C6145F7DBBC
:1043D000DAF80010B1F83611814203DA2878A0EB40
:1043E000060010E050B124F00104A00725D50020FC
:1043F0000146D9F80CC0D9F818300DE028783044BF
:10440000FF2800DDFF202870EFE700BF33F91120FF
:10441000824200DD1046491C6145F7DBDAF80010E6
:10442000B1F83A11814205DA98F80010891B88F832
:10443000001002E070B124F00204002CB2D0012E72
:1044400000DD7610FFF7E7FCFDF713FD7F1C202F42
:10445000ABDBA7E798F800003044FF2800DDFF2021
:1044600088F80000E9E770B5264C00202060FEF7D0
:104470007AFB6060FEF7A2FBA06060680421400840
:104480006060201DFEF78CFA2061042104F1080011
:10449000FEF786FAE0600220FFF76EFA1A482169FB
:1044A000806800EB41026261E26802EB410100EBCF
:1044B0004100A061FFF7D3FE0E4D286890F830014F
:1044C000800601D5FFF7F6FCFFF745FCFFF79AFBE6
:1044D000FDF7CFFC09482968C01C027891F8FB174A
:1044E00062F3030101702068BDE8704040F00200F3
:1044F00003F0FCBE44281000F7071000F807100076
:10450000B8021000902810008840100010B5014635
:1045100010229848FEF723FC974841688020FCF75A
:10452000A7FD002803D0BDE81040FBF76BBF10BD0E
:10453000F0B5924D06460C4628684FF0FF3193B017
:1045400090F8B10000F00F00401C8140CF43684656
:10455000FEF73CFC01208DF800008DF80140286832
:1045600000F5867001788DF8121044F005018DF881
:1045700001100297ADF81060AFF26F010191417820
:104580008DF8161080787B4D8DF81700032468464F
:10459000FDF7F7FA00218020FCF7EAFC00218020DB
:1045A000FCF714FD2878002804D0FDF72AFF641ECC
:1045B000002CECDC13B0F0BD2DE9F0476F4D4FF04F
:1045C0000009DFF8B081286800F57070047846783B
:1045D00087781AE049462046FFF7AAFFD8F804007A
:1045E00007F0CCF80146286890F80B2112F00F0074
:1045F00000D1012012094A43B2FBF0F082B22146F9
:10460000302003F0D2FEE01984B2B442E2DDBDE80E
:10461000F0872DE9FF5F4FF6FF764FF0000A9346D3
:104620000F46804634465546DFF850911CE000BFE7
:1046300038F815005146FFF77BFF4E48406807F0F9
:104640009DF8D9F8001091F80B2112F00F0100D15C
:10465000012112094243B2FBF1F080B2A04202D222
:1046600038F8156004466D1CBD42E1DBABF8006014
:1046700003980480BDE8FF9F2DE9F0413F4D0446BB
:104680008846286888B000F1D20690F8D10006ABC1
:1046900000F00F01491C05AA3046FFF7BAFF2A684F
:1046A00092F8D000800721D5BDF814600121ADF843
:1046B000006002F1F20500234FF4803C6F4607E0F2
:1046C000E8563044604502D227F81100491C5B1CB3
:1046D00092F8D100C0F30210401C9842F0DC00298F
:1046E00004DD06AB05AA3846FFF793FFBDF81400BA
:1046F0002080BDF81810A8F8001008B0BDE8F081BF
:104700002DE9FC411E4E00235A1E19463068FBF766
:10471000DFFF1C4C01A968466588FFF7ADFF174F06
:104720003868B0F8FA10BDF80400814201D9218040
:1047300000E02080BDF8000060803068FBF780FF5B
:10474000BDF80000854207D0386890F8D0004007D7
:1047500002D56088FEF7CEFE0B49012008700B4998
:104760000870BDF800202946092003F0E1FDBDE8EE
:10477000FC81000098401000C83F10004428100041
:10478000E03F1000BC3F10005228100078281000B5
:104790002DE9F0410178C04C01B121700146102291
:1047A000BE48FEF7DCFABE48016891F8CD27D30772
:1047B000BA4A01D0D36800E093684A7D6168B94D78
:1047C0004A43002106E000BF33F811605718491C26
:1047D00025F817600668767D8E42F5DC6268521C0B
:1047E00062600168497D01FB02F6002207E08F1834
:1047F00006EB020C33F8177025F81C70521C076882
:104800007F7D9742F3DC6168491C6160006890F825
:10481000B10000F00F00401C884205DDBDE8F0410A
:104820009E484838FDF7ADB99F4841688020FCF7A5
:104830001FFC002803D0BDE8F041FBF7E3BDBDE855
:10484000F0812DE9FF5FDFF854B24FF6FF740025C9
:104850008A46A046ABF1480BA9468F4E5AE08F48D6
:104860004838FEF7B3FA8E4A116891F8CD07C007B1
:1048700001D0102300E002238BF80030009830F8BC
:104880001530ABF82C309BF8013043F004038BF863
:104890000130AFF2031301F2C931CBF804300A78CA
:1048A0008BF83020CA788BF832204A788BF8332086
:1048B00089788BF834100327C6F80490774886F877
:1048C00000904838FDF75DF900218020FCF750FB8F
:1048D00000218020FCF77AFB307820B1FDF791FDB4
:1048E0007F1E002FEADC6F4802F0A9FA6C490968C4
:1048F00091F8C82312F00F0100D10121120942439F
:1049000090B2B0FBF1F0A04203D20099044631F816
:1049100015806D1C5545A2DB0299A1F80080039813
:104920000480BDE8FF9F2DE9F04105465C488846BC
:104930008CB000680AAB00F2823C90F8812300F250
:10494000A23490F8800302F00F01C2F30216C0F304
:10495000400709AA491C6046FFF773FFDFB1BDF8A5
:10496000243001210020ADF800304FF4803C6F4628
:10497000761C07E022561A44624502D227F811201D
:10498000491C401CB042F5DB012904DD0AAB09AA31
:104990003846FFF756FFBDF824002880BDF82810E0
:1049A000A8F800100CB04AE77CB5404E00235A1E10
:1049B00019463068FBF78CFE3D4C01A96846E58836
:1049C000FFF7B1FF36480168BDF80400B1F8AC2329
:1049D000824201D9A28000E0A080BDF80000E08002
:1049E0002081854205D091F88013490701D5FEF753
:1049F000C7FD3049012008702F4908703068FBF767
:104A00001FFEBDF8002029460A2003F091FC7CBD62
:104A10002DE9F041224DDFF884802868A8F148088C
:104A200000F2C33004784678877832E01B48483873
:104A3000FEF7CCF9286890F8CD07C00701D0102107
:104A400000E0022188F80010A8F82C4098F8011026
:104A500041F0040188F80110AFF2CB21C8F804102E
:104A60000D49002048600D484838FDF78AF80021BC
:104A70008020FCF77DFA00218020FCF7A7FA094886
:104A800002F0DDF902462146312003F08EFCE019E8
:104A900084B2B442CADDD2E6AC281000F040100067
:104AA0004428100060A10120C83F1000E03F100022
:104AB000BC3F100052281000782810002DE9F0416A
:104AC000174604460D46002609E0E00703D03146AC
:104AD000384603F0AFFB761C6D084FEA340454EA05
:104AE0000500F2D1BDE8F08130B5034600204FF05B
:104AF000FF32012505FA00F40C4202D0521C9A4202
:104B000003D0401C2028F5D3002030BDF0B50E4660
:104B10000125074605FA06F2FE4C0F2FD4E91510C1
:104B200065D2DFE807F064434B081064641921295B
:104B3000323A54585C003046FFF7D6FF8540A06AF1
:104B40000543A56253E001463046FFF7CDFF85409F
:104B5000206C054325644AE03046FFF7C5FF8540D9
:104B6000E06A0543E56242E03046FFF7BDFF85405D
:104B7000206B054325633AE001463046FFF7B4FF5A
:104B80008540A06C0543A56431E03046FFF7ACFFDB
:104B90008540606B0543656329E001463046FFF7B9
:104BA000A3FF8540E06C0543E56420E03046FFF755
:104BB0009BFF8540606A0543656218E00146304608
:104BC000FFF792FF8540E06B0543E5630FE0A06BC4
:104BD0000243A2630BE0206D0243226507E0014619
:104BE0003046FFF781FF8540606C054365642068AF
:104BF000401C2060F0BD10B501461022C648FEF7EB
:104C0000AEF8C64841688020FCF732FA002803D08D
:104C1000BDE81040FBF7F6BB10BDFDF797BF10B520
:104C2000FDF786FF4008400010BD2DE9F04789469A
:104C300005464FF0FF34FDF789FFB64F00231946B4
:104C4000D7F804604FF0010C0CFA01F2024200D0D8
:104C5000641CAC4206D1B9F1010F0AD020EA02036C
:104C60000E462021491C2029EED318467E60BDE85F
:104C7000F0871346F4E72DE9F047894605464FF0E3
:104C8000FF34FFF7CCFFA34F024600207B680146AC
:104C90004FF0010C0CFA01F6164200D0641CAC4235
:104CA00006D1B9F1010F08D022EA06000B461E21F9
:104CB000491C1E29EED37B60D9E73046F6E72DE983
:104CC000F04196B0044688466846FEF77FF812A881
:104CD000FDF792FAFFF7A3FF8E4F40087865FDF7C6
:104CE00035FF20268E4DB865012C0AD0022C22D02B
:104CF000032C26D0042C29D0052C30D0062C4ED0E5
:104D000064E0FDF78BFF0290FDF78EFF039001201A
:104D10008DF800000C20ADF8100040208DF8120036
:104D20008DF8166091208DF817000298400878657C
:104D30000398B8654AE0FFF772FF0990FDF706FF98
:104D400014E0FDF703FF01210A9003E0FDF7FEFEEA
:104D500000210A904046FFF78EFF099007E0FFF719
:104D60005EFF099001214046FFF75FFF0A908DF832
:104D70000060286800F55A7081788DF83010C1788D
:104D80008DF8331001788DF8341041788DF8351096
:104D90008188ADF82C100089ADF82E0016E0FFF7E1
:104DA0003EFF0990FDF7D2FE0A908DF8006028685A
:104DB00000F2613081788DF83010C1788DF83310B1
:104DC00001788DF8341040788DF8350000209DF87A
:104DD00001108DF8140021F030018DF832008DF8AB
:104DE000150041F008018DF831008DF80110AFF287
:104DF000F91103260191012C13D0092C27D00A2C7C
:104E000025D000BF8DF852008DF854008DF8530066
:104E1000022C13D0032C11D0042C0FD0052C0DD054
:104E200015E0296891F889178DF84C0041F00301CD
:104E30008DF848103C21ADF84A10E3E72868B0F837
:104E40006E13ADF84E10B0F87203ADF8500012A812
:104E5000FDF7F3F9304C6846FCF793FE0021802003
:104E6000FCF786F800218020FCF7B0F820780028B5
:104E700004D0FDF7C6FA761E002EECDC16B031E643
:104E80002DE9FC5F00210120FFF719FF2248476848
:104E9000FDF7C4FE0190FDF7C7FE0090042101A8B4
:104EA000FDF77EFD064604216846FDF779FD844640
:104EB00000200546DFF85CB0DFF864A000905CE0FD
:104EC0004FF00008C1465C462846DBF85810FFF753
:104ED0000BFE014601208840A16C08424CD1012400
:104EE0003BE000BF04FB0C51DAF8000037F9112059
:104EF00090F86703B2EB001F2EDA08F10108B9F150
:104F0000000F00D1A146721E944225D1B8F1010FC5
:104F100022D107E0B428100000411000C83F100063
:104F200044281000ACF10102954204D1611E012019
:104F3000FFF7ECFD0EE007EB4101B1F90220B2EB07
:104F4000001F05DB35B131F9021CB1EB001F01DA9E
:104F5000002000E002208046641CB442C2DBA6EBC5
:104F60000901414508D829460220FFF7CFFD01205D
:104F70000099A840084300906D1C6545A0DB012501
:104F80003BE000BF4FF0000844462CE0DBF8403027
:104F9000DBF8482000201A4311D0D9462046DBF820
:104FA0005810FFF7A1FD014601208840D9F84810AC
:104FB000084203D1D9F84010084000D0012005FB79
:104FC0000C4137F91120DAF8001091F86713B2EBB1
:104FD000011F07DA30B901200099A040084201D131
:104FE00008F10108641C6445D0DBB8F1000F03D060
:104FF000691E0120FFF78AFD6D1CB542C2DBBDE8CA
:10500000FC9F2DE9F041E34C00200546E24FDFF81C
:105010008C83A0611EE029460520FFF750FE216920
:105020000120BE6800EB410C36F91C10D8F80000D6
:1050300090F87703B1EB001F03D929460E20FFF744
:1050400065FD36F91C00A169884202DD36F91C00B5
:10505000A0616D1C60698542DDD343E52DE9F04117
:1050600000210620FFF72BFECB480025CB4EC94C74
:1050700087680EE0E0683168284437F9100091F83D
:105080006513B0EB011F03DD29460A20FFF73EFD43
:105090006D1C20698542EDDB00250EE0A0683168BB
:1050A000284437F9100091F86513B0EB011F03DDB8
:1050B00029460B20FFF72AFD6D1C60698542EDDB58
:1050C00010E52DE9F041B34C00200646206237E0A0
:1050D00031460420FFF7F3FDAF48002587682BE039
:1050E000FDF734FD01462846FFF7FEFC014601208E
:1050F0008840216C08421ED1A849A068284409684C
:1051000007EB400030F9040C91F87813B0EB011F65
:1051100007D931460820FFF7F9FC29460920FFF797
:10512000F5FCA068216A284407EB400030F9040C24
:10513000884200DD20626D1C60698542D0D3761CF8
:1051400020698642C4D3CDE42DE9F041914C002082
:105150000546914FDFF84482E0611AE029460320BA
:10516000FFF7ADFDBE68B6F90210D8F8000090F860
:105170007603B1EB001F03D929460720FFF7C6FCD1
:10518000B6F90200E169884202DDB6F90200E06189
:105190006D1C20698542E1D3A4E42DE9F041002192
:1051A0000220FFF78CFD7C487C4D7A4C876828688C
:1051B00090F86003000713D500260EE0E068296828
:1051C000304437F9100091F87413B0EB011F03D984
:1051D00031460320FFF79AFC761C20698642EDDBFE
:1051E000286890F86003C00613D500260EE0A0687A
:1051F0002968304437F9100091F87513B0EB011F9E
:1052000003D931460420FFF781FC761C6069864291
:10521000EDDB67E42DE9FC41614E00235A1E19467F
:105220003068FBF755FA4FF48010411208F0EDF8A2
:10523000FCF71FFEFCF70EFEFCF7CCFD554C0020E2
:105240002060FFF7ECFC0090FDF780FC019004214A
:105250006846FDF7A5FB0546042101A8FDF7A0FB64
:10526000014600EB4500C4E90205C4E904514B4D79
:10527000286890F86003010701D4C00601D5FFF744
:105280008CFF286890F86003800601D5FFF75CFF6B
:10529000286890F86003000601D5FFF712FF286820
:1052A00090F86003C00701D0FFF7D8FE286890F897
:1052B0006003400601D5FFF7A4FE286890F860035C
:1052C000800701D5FFF7DCFD206800285DD0D4E918
:1052D0000A359D43E562606AD4E90F1C9843A843F0
:1052E0006062676C21EA0C01B943E163A16B226D36
:1052F0009943A943256B22EA0C02A943A163A16C3F
:10530000BA438A43AB43A362226501220021FFF71F
:10531000D5FB02220021E06BFFF7D0FB0322002126
:10532000A06AFFF7CBFB04220021206CFFF7C6FB2D
:1053300007220021E06AFFF7C1FB08220021206B51
:10534000FFF7BCFB09220021A06CFFF7B7FB0A2284
:105350000021606BFFF7B2FB0B220021E06CFFF72E
:10536000ADFB0C220021A06BFFF7A8FB0D22002152
:10537000206DFFF7A3FB0E220021606CFFF79EFB60
:105380003068FBF75DF9BDE8FC810021084602F0BA
:1053900051FFF5E7B4281000004110004428100028
:1053A000E03F1000584E594CDFF86481DFF86491FB
:1053B0004FF0FF3A0025307880B10128FBD140F250
:1053C0007D700021FBF7D4FDFBF78AFEC1071ED0DC
:1053D00000210120FBF7FAFD3570ECE702270121DF
:1053E0000020FDF722FC00213846FBF7C1FD01211A
:1053F0000846FDF71AFCFBF773FE8007DBD500219A
:1054000040F27F70FBF7E2FD01203070D3E7010727
:105410000CD500210820FBF7D9FD00235246194680
:105420002068FBF755F9FEF7CEFB0DE041070FD5DD
:1054300000210420FBF7CAFD0023524619462068CC
:10544000FBF746F9FFF70FF82068FBF7F9F8B2E72A
:10545000C1060AD500211020FBF7B8FD98F800001E
:105460000028A8D1FFF74CF9A5E781060AD500214D
:105470002020FBF7ABFD98F8000000289BD1FFF738
:1054800093FA98E7C10507D500214FF48070FBF728
:105490009DFDFFF791F88EE7810507D500214FF4B8
:1054A0000070FBF793FDFFF7B3FA84E7410606D5DA
:1054B00000214020FBF78AFDFFF7ACFE7BE74005AB
:1054C0008BD500214FF48060FBF780FD124805600A
:1054D0001248076805603846FDF797FFA7F540704A
:1054E000BF3801D105200AE0F80701D0152006E0F9
:1054F00017F0420F05D0D9F8000040F0060002F086
:10550000F5FEC9F8005056E710291000E03F1000E2
:105510005C2810004C281000AC291000482810000E
:10552000FE490020FF4A0870FD49087001211170F2
:10553000FD4A1170FD49FE4AC86008618880087004
:105540008861C86108621268B2F852314B81B2F8C2
:1055500054210A814862887000F0FEBE30B50024F4
:10556000234605E030F913508D4200DD641C5B1CBE
:105570009342F7DBEE48006890F86101A04201D247
:10558000012030BD002030BDF0B500252F462C464F
:10559000DDF814C009E000BF30F91460B54203DA49
:1055A000964201DD3546E7B2641C8C42F4DB25B13E
:1055B0008CF8007001201D60F0BD0020F0BD30B5FA
:1055C00085B00446DA4D01A80090286803ABB0F915
:1055D0005221017DD748FFF7D7FF80B12B689DF896
:1055E000040093F88A2102F00F01814201D81B7D4B
:1055F0001BE0207800EB1210207005B030BD02A82F
:105600000090286804ABB0F95421417DCA48FFF7E7
:10561000BBFF0028F1D02B689DF8080093F88A2181
:1056200002F00F018142E4D85B7D591A8142E0DB30
:10563000E3E72DE9FE410446BD4801AB5022006876
:1056400090F88911B0F9877101F00F080E09B0F9CF
:10565000855102A90091017DB648FFF795FF019899
:10566000B84203DD2178A1EB08000EE0A84202DA7F
:105670002078801B09E0401BA8EB06014843791BFA
:1056800090FBF1F021783044081A2070BDE8FE81CB
:1056900030B564290CD00023642407E030F913509E
:1056A0004D4395FBF4F520F813505B1C9342F5DB5A
:1056B00030BD70B5002364250AE0CC5C642C06D0B4
:1056C00030F91360664396FBF5F420F813405B1C39
:1056D0009342F2DB70BD2DE9F0470025894629464B
:1056E0002F462E46A8462B460DE000BF30F913C0CA
:1056F00039F913400CFB0C660CFB047704FB04889F
:10570000654421445B1C9342F0DB87FB020485FB6C
:10571000013CC71A86FB020385FB056564EB0C049C
:10572000B0EB060C63EB050688FB020381FB01214D
:10573000851A63EB01086421A7FB010304FB013117
:10574000002207FB02113346624607F0EDFD0246D8
:10575000A2FB070301FB073102FB04112A46434663
:1057600007F0E2FD002C00DA4042BDE8F08730B5DA
:1057700047F6F873002405E030F91450AB4200DD21
:105780002B46641C9442F7DB002405E030F81450EB
:10579000ED1A21F81450641C9442F7DB30BD70B54B
:1057A00003460020024601EBD17408E003EB4206F9
:1057B00033F91250B6F90260AD1B2844521CB2EB0B
:1057C000640FF3DB621008E003EB420533F912408B
:1057D00035F9025C641B2044521C8A42F4DB70BD24
:1057E000F0B587B00746524C03A8009020689C464D
:1057F0008E461646017D002504AB0FFA8CF27046EA
:10580000FFF7C2FE01283BD102A80090206805AB3B
:1058100032B2417D3846FFF7B7FE012830D1DDE9CD
:10582000041081424FF0640203DD504390FBF1F11C
:1058300002E0514391FBF0F1206890F892218A42F6
:105840001EDD9DF8081019B990F89121D20716D0E5
:10585000427D521E8A4203D190F8911189070ED5DC
:105860009DF80C1019B990F89121520707D5027DC7
:10587000521E8A4204D190F89101000700D40125FC
:1058800007B02846F0BDF8B5294C0F4616462168EA
:10589000002591F89021530771D5120625D54A7D30
:1058A000009291F88B31254A254901F0C2FD20680C
:1058B000244A017D009190F88C312349384601F04B
:1058C000B8FD0096206890F89311427D0B091F499E
:1058D0001A4801F03DFD0096206890F89311027D72
:1058E0000B091A4917483C3110E0009691F89321B2
:1058F00013094A7D154901F02BFD0096206890F8A8
:105900009311027D0B09114938463C3101F020FD0D
:1059100020680B49437DB0F89E2119E05A281000F9
:105920005B28100078281000792810001429100036
:1059300044281000E82C0120AC2C0120404110002C
:10594000C22501207C411000FE250120B82701203E
:10595000FE4801F0D9FD06462068FD49037DB0F8F8
:105960009C21FA483C3001F0CFFD0346F949002262
:10597000F948012E05D0C261012B13D002622846DE
:10598000F8BDC669761CC661276897F8937107F061
:105990000F07B742F0DAC2610E68012546F04006F3
:1059A0000E60E9E7036A5B1C0362246894F8934184
:1059B00004F00F049C42E2DA02620868012540F01C
:1059C00040000860DBE7F0B40446E4480B46802161
:1059D00000680D4690F8680110B10146C0F5807569
:1059E000DD48C088032805D22146F0BC5200184685
:1059F000FDF7B5B900200EE033F9106034F91070EE
:105A00004E4307FB0566F71706EB176646F30F26AE
:105A100023F81060401C9042EEDBF0BC7047F0B5FC
:105A20000024CE4D0FE030F8146031F81470012BD3
:105A30000CD0F61B2F6897F86D717F4206EBC706F6
:105A400020F81460641C9442EDDBF0BD3E442F68E6
:105A500097F86D71F2E72DE9F843BF4D80460026B7
:105A6000E88898B93C22BE49BE48FDF778F9402243
:105A7000B749BD48FDF773F9B4483C21B83007F089
:105A8000C4FCB2484021F43007F0BFFCE98801278C
:105A9000B24C032902D2B548077014E013D920682C
:105AA000B0F86B218A420ED9A849437DAD4AB8317E
:105AB000AB4801F09AFC2068A449AB4A037DF4315D
:105AC000A34801F092FC206890F8501109070ED508
:105AD000017D0091B0F95231A54A9D49404601F03F
